S016000049525F536F756E645F66696E616C2E73726563A2
S11300000C9434000C943E000C943E000C943E007E
S11300100C943E000C943E000C943E000C943E0064
S11300200C943E000C943E000C943E000C943E0054
S11300300C943E000C943E000C943E000C943E0044
S11300400C943E000C943E000C943E000C943E0034
S11300500C943E000C943E000C943E000C943E0024
S11300600C943E000C943E0011241FBECFEFD8E048
S1130070DEBFCDBF0E9472000C942D010C940000D1
S11300809093C5008093C40088E08093C10086E00B
S11300908093C2000895E0ECF0E0908195FFFDCFDD
S11300A08093C600089580E480937C0087E8809361
S11300B07A000895ECE7F0E09081907F8F70892BAF
S11300C080838AE18A95F1F700C0EAE7F0E0808155
S11300D080648083808186FDFDCF8091780090913B
S11300E07900089584B1836084B952985A9A289A01
S11300F00E94530087E690E00E944000239AC2E0E9
S11301000F2EF4E6CF2ED12CE12CF12CF02DD8E0DB
S113011089B1182F147082FF22C095E085B18D2714
S113012085B92FEF31EE84E0215030408040E1F773
S113013000C00000915091F789E40E944B008C2F7D
S11301400E945A009C01AAECB0E00E941E01A70183
S113015096010E94FC002D33310588F425C02998AE
S11301608C2F0E945A009C01AAECB0E00E941E0150
S1130170A70196010E94FC002D333105A8F095E0FB
S113018085B18C2785B92FEF31EE84E021503040C2
S11301908040E1F700C00000915091F783E50E9490
S11301A04B00111103C021C02B981FC084E6299A6B
S11301B02B989FEF20E732E0915020403040E1F748
S11301C000C000002B9A29989FEF20E732E091505D
S11301D020403040E1F700C00000815041F785B174
S11301E0857F85B982E40E944B008FE39CE90197E7
S11301F0F1F700C000008CCFA1E21A2EAA1BBB1B92
S1130200FD010DC0AA1FBB1FEE1FFF1FA217B307DE
S1130210E407F50720F0A21BB30BE40BF50B661FF4
S1130220771F881F991F1A9469F7609570958095B8
S113023090959B01AC01BD01CF010895A29FB0012F
S1130240B39FC001A39F700D811D1124911DB29F06
S1110250700D811D1124911D0895F894FFCFA7
S9030000FC
